:020000040800F2
:10000000C8100020450100083D260008D11F000847
:1000100039260008610300086D2D0008000000006B
:100020000000000000000000000000005B28000845
:10003000A103000800000000792600085D280008E0
:100040005F0100085F0100085F0100085F01000810
:100050005F0100085F0100085F0100085F01000800
:100060005F0100085F0100085F0100085F010008F0
:100070005F0100085F010008650300085F010008D8
:100080005F0100085F0100085F0100085F010008D0
:100090005F0100085F0100085F0100085F010008C0
:1000A0005F0100085F0100085F0100085F010008B0
:1000B0005F0100085F0100085F0100085F010008A0
:1000C0005F0100085F0100085F0100085F01000890
:1000D0005F0100083D2D00085F0100085F01000876
:1000E0005F0100085F0100085F0100085F01000870
:1000F0005F0100085F0100085F0100085F01000860
:100100005F0100085F0100085F0100085F0100084F
:100110005F0100085F0100085F0100085F0100083F
:100120005F0100085F0100085F0100085F0100082F
:10013000DFF80CD000F044F800480047B92D000863
:10014000C81000200648804706480047FEE7FEE743
:10015000FEE7FEE7FEE7FEE7FEE7FEE7FEE7FEE777
:10016000F12800083101000840EA01039B0703D091
:1001700009E008C9121F08C0042AFAD203E011F8E6
:10018000013B00F8013B521EF9D27047D2B201E0A8
:1001900000F8012B491EFBD270470022F6E710B58C
:1001A00013460A4604461946FFF7F0FF204610BDE5
:1001B000421C10F8011B0029FBD1801A7047000077
:1001C000064C074D06E0E06840F0010394E80700A4
:1001D00098471034AC42F6D3FFF7AEFF0C3000085E
:1001E0002C30000830B597B058221E4901A8FFF7FF
:1001F000BBFF002501208DF81E001B4804903C2009
:10020000ADF81C0004208DF80C0018481190184817
:10021000149001AA4FF48061164802F021F8051EDF
:1002200003DC6FF01D0017B030BD17E0A9B2114814
:1002300002F04AF94FF4FA624FF480610E4802F07E
:100240000DF90446601C20B1A0B200F017F800B907
:1002500005E041F2883000F0D9FB00BFE6E700BFBF
:100260000020E0E7B42F0008502F0008A12F00085D
:10027000782F0008B4040020B40800207CB50446A0
:100280000025FF200190002000902346144A01A978
:10029000684601F09FFE012802D06FF01C007CBD73
:1002A0009DF80400062815D2DFE800F00305080BCE
:1002B0000E11002511E06FF025050EE06FF024050A
:1002C0000BE06FF0230508E06FF0220505E06FF00A
:1002D000210502E06FF0260500BF00BF2846DEE7DB
:1002E000B408002070B58AB0002009900024029064
:1002F0001A48807880B3194884880020174988807C
:100300008870022C01DA0AB070BD14488079099017
:100310009DF824000609B01E0C281BD2DFE800F06F
:100320000614071A1A1A1A081A181A1913E012E0F2
:100330000A48801D03AB02AA0521CDE9000408A8E4
:1003400001F0DAFE054606E0204602F07BFD02E001
:1003500001E000E000BF00BF00BFD4E7280000209C
:1003600000BFFEE710B5024800F0F0F810BD000035
:100370007004002030B590F840500124AC40C56BAB
:100380006C60046863604468102C04D10468A26047
:100390000468E16003E00468A1600468E26030BDC5
:1003A0007047704770B50446002594F82100022874
:1003B00003D00420A0630125C1E02068006820F07C
:1003C0000E00216808602068006820F001002168A4
:1003D00008605C492068884252D95A4978392068B7
:1003E000884201D1012047E056496439206888429B
:1003F00001D1102040E0534950392068884201D192
:10040000801539E04F493C392068884201D1801479
:1004100032E04C4928392068884202D14FF48030BC
:100420002AE0484914392068884202D14FF48010EC
:1004300022E044492068884201D140041CE042493E
:100440002068884201D1012016E03F49143120681C
:10045000884201D110200FE03B49283120688842B2
:1004600001D1801508E038493C312068884201D12B
:10047000801401E04FF480303349091F086051E0D7
:10048000304978392068884201D1012047E02D4960
:1004900064392068884201D1102040E02949503950
:1004A0002068884201D1801539E026493C3920680E
:1004B000884201D1801432E02249283920688842DC
:1004C00002D14FF480302AE01E4914392068884256
:1004D00002D14FF4801022E01A492068884201D1ED
:1004E00040041CE018492068884201D1012016E030
:1004F000154914312068884201D110200FE01249BB
:1005000028312068884201D1801508E00E493C312D
:100510002068884201D1801401E04FF480300949FD
:1005200080394860012084F8210000BF002084F851
:10053000200000BF606B10B12046616B88472846E1
:1005400070BD0000800002400804024070B50446FF
:10055000E06B05682068066894F840100420884025
:100560002840002875D006F004000028FAD0206842
:10057000006800F0200028B92068006820F004001E
:1005800021680860D5492068884254D9D349783910
:100590002068884201D1042049E0D04964392068AC
:1005A000884201D1402042E0CC495039206888423D
:1005B00001D100153BE0C9493C392068884202D18D
:1005C0004FF4804033E0C54928392068884202D181
:1005D0004FF480202BE0C14914392068884202D1B1
:1005E0004FF4800023E0BD492068884201D1C00457
:1005F0001DE0BB492068884201D1042017E0B849BA
:1006000014312068884201D1402010E0B4492831DB
:100610002068884201D1001509E0B1493C312068C9
:10062000884202D14FF4804001E04FF48020AC4971
:10063000091F086054E0A94978392068884201D12F
:1006400004204AE0A54964392068884202D140204C
:1006500043E04CE0A14950392068884201D100159F
:100660003BE09E493C392068884202D14FF48040EB
:1006700033E09A4928392068884202D14FF480201B
:100680002BE0964914392068884202D14FF480004B
:1006900023E092492068884201D1C0041DE09049BE
:1006A0002068884201D1042017E08D491431206868
:1006B000884201D1402010E08949283120688842D1
:1006C00001D1001509E086493C312068884202D1F9
:1006D0004FF4804001E04FF4802080498039486029
:1006E000E06A002802D02046E16A8847F4E094F8E6
:1006F0004010022088402840002871D006F00200F7
:100700000028FAD02068006800F0200040B9206876
:10071000006820F00A0021680860012084F82100A8
:100720006E492068884254D96C49783920688842DB
:1007300001D1022049E0694964392068884201D129
:10074000202042E0654950392068884201D1401597
:100750003BE062493C392068884202D14FF40050A6
:1007600033E05E4928392068884202D14FF40030D6
:100770002BE05A4914392068884202D14FF4001006
:1007800023E056492068884201D180041DE0544985
:100790002068884201D1022017E0514914312068B5
:1007A000884201D1202010E04D492831206888423C
:1007B00001D1401509E04A493C312068884202D104
:1007C0004FF4005001E04FF400304549091F086024
:1007D00054E0424978392068884202D102204AE038
:1007E00057E03E4964392068884201D1202042E028
:1007F0003A4950392068884201D140153BE03749D9
:100800003C392068884202D14FF4005033E033492C
:1008100028392068884202D14FF400302BE02F495C
:1008200014392068884202D14FF4001023E02B498C
:100830002068884201D180041DE02949206888424F
:1008400001D1022017E0264914312068884201D1E5
:10085000202010E0224928312068884201D140152B
:1008600009E01F493C312068884202D14FF4005012
:1008700001E04FF4003019498039486000BF002082
:1008800084F8200000BFA06A30B32046A16A8847E0
:1008900022E094F84010082088402840E0B106F09B
:1008A0000800C8B12068006820F00E0021680860C8
:1008B00094F8401001208840E16B48600120A0635B
:1008C00084F8210000BF002084F8200000BF206BC6
:1008D00010B12046216B884770BD000080000240A7
:1008E000080402400146002209B9012070471E4B4E
:1008F000086898420BD21D4B0868C01A1423B0FB3D
:10090000F3F08000086419480838C8630AE0164B01
:100910000868C01A1423B0FBF3F080000864124882
:100920000838C863022081F821000868026843F68D
:10093000F0708243D1E901031843CB6818430B6977
:1009400018434B6918438B691843CB69184302431A
:100950000868026000208863012081F821000020DF
:1009600081F8200000BFC1E70804024008000240EF
:100970002DE9F04104460D4616461F464FF000088B
:1009800000BF94F82000012802D10220BDE8F081C8
:10099000012084F8200000BF94F8210001282CD108
:1009A000022084F821000020A0632068006820F065
:1009B0000100216808603B46324629462046FFF781
:1009C000D9FCE06A30B12068006840F00E00216870
:1009D00008600BE02068006820F0040021680860CF
:1009E0002068006840F00A002168086020680068FC
:1009F00040F001002168086006E000BF002084F894
:100A0000200000BF4FF002084046BFE770B5044623
:100A100000F0B0F906462546681C10B1044800787D
:100A2000054400BF00F0A6F9801BA842FAD370BDB0
:100A3000080000202DE9F847024600240020002588
:100A40008446002700237BE14FF0010808FA03F4F5
:100A5000D1F8008008EA0400A0427DD1DFF8ECA2C2
:100A6000D1F80480A8EB0A09D0453AD014DCB8F1DB
:100A7000030F50D009DCB8F1000F31D0B8F1010FED
:100A80001CD0B8F1020F49D120E0B8F1110F18D0F5
:100A9000B8F1120F42D11EE0B9F5881F25D006DC4F
:100AA000B9F5803F20D0B9F5801F37D11AE0B9F5EC
:100AB000001F18D0B9F5041F30D117E0D1F80CC0D1
:100AC0002DE0D1F80C8008F1040C28E0D1F80C805E
:100AD00008F1080C23E0D1F80C8008F10C0C1EE0A2
:100AE00000BF00BF00BF00BF00BF00BFD1F808803B
:100AF000B8F1000F02D14FF0040C0BE0D1F80880E0
:100B0000B8F1010F03D14FF0080C146102E04FF06F
:100B1000080C546103E04FF0000C00E000BF00BF80
:100B2000FF2801D8904601E002F104084646FF285C
:100B300002D84FEA830803E0A3F108084FEA8808C7
:100B40004746D6F800804FF00F0909FA07F928EA5E
:100B500009080CFA07F900E07AE048EA0908C6F843
:100B60000080D1F8048008F08058B8F1805F6FD120
:100B700000BFDFF8DC81D8F8188048F00108DFF802
:100B8000D091C9F81880C846D8F8188008F0010834
:100B9000CDF8008000BF00BF4FEAB9384FEA930993
:100BA00058F829504FEA83784FEA18794FF00F0828
:100BB00008FA09F825EA0805DFF89881424502D1CC
:100BC0004FF0000824E0DFF89081424502D14FF059
:100BD00001081DE0DFF88481424502D14FF0020890
:100BE00016E0DFF87C81424502D14FF003080FE0A8
:100BF000DFF87081424502D14FF0040808E0DFF8C9
:100C00006881424502D14FF0050801E04FF0060827
:100C10004FEA83794FEA197908FA09F848EA050595
:100C2000DFF848814FEA930948F82950D1F8048049
:100C300008F48038B8F5803F0BD1DFF83481D8F85C
:100C4000008048EA0008DFF82891C9F800800AE02F
:100C500075E0DFF81C81D8F8008028EA0008DFF88A
:100C60001091C9F80080D1F8048008F40038B8F574
:100C7000003F0ED1DFF8F88008F10408D8F80080B2
:100C800048EA0008DFF8E89009F10409C9F8008093
:100C90000DE0DFF8DC8008F10408D8F8008028EACD
:100CA0000008DFF8CC9009F10409C9F80080D1F8F8
:100CB000048008F48018B8F5801F0ED1DFF8B080EA
:100CC00008F10808D8F8008048EA0008DFF8A0908A
:100CD00009F10809C9F800800DE0DFF8948008F1F7
:100CE0000808D8F8008028EA0008DFF8849009F1A5
:100CF0000809C9F80080D1F8048008F40018B8F594
:100D0000001F0ED1DFF8688008F10C08D8F80080C9
:100D100048EA0008DFF8589009F10C09C9F800808A
:100D20000DE0DFF84C8008F10C08D8F8008028EAC4
:100D30000008DFF83C9009F10C09C9F800805B1C41
:100D4000102BFFF481AEBDE8F88700000000111001
:100D50000010024000080140000C0140001001405A
:100D60000014014000180140001C0140080001402F
:100D700000040140014800687047000000000020A6
:100D8000034800680349097808440149086070472E
:100D9000000000200800002010B50848006840F05E
:100DA000100006490860032000F0A6F8002000F0BB
:100DB00007F800F02BF8002010BD000000200240D2
:100DC00070B504460E4800784FF47A71B1FBF0F02C
:100DD0000C490968B1FBF0F5284600F0E7FE08B1C0
:100DE000012070BD102C07D200222146501E00F0B9
:100DF00044F80548046001E00120F2E70020F0E734
:100E0000080000200C0000200400002008B500BFEE
:100E10001148806940F001000F49886108468069E7
:100E200000F00100009000BF00BF00BF0846C0698D
:100E300040F08050C8610846C06900F080500090C2
:100E400000BF00BF00BF0549486820F0E06000BF58
:100E5000486000BF08BD00000010024000000140D3
:100E600000BF00F01F02012191404209920002F1EF
:100E7000E022C2F8001100BF70472DE9F05F804604
:100E80000D461646002701F0DBFB074639462A4689
:100E9000334601F00700C0F1070ABAF1040F02D986
:100EA0004FF0040A01E0C0F1070AD14600F1040A3C
:100EB000BAF1070F02D24FF0000A01E0A0F1030AD5
:100EC000D4464FF0010A0AFA09FAAAF1010A0AEA1D
:100ED000020A0AFA0CFA4FF0010B0BFA0CFBABF109
:100EE000010B0BEA030B4AEA0B042146404601F0D2
:100EF000AFFBBDE8F09F000000BF00F00702064B0B
:100F000019684FF6FF031940044B0B4343EA0221D3
:100F1000014B196000BF70470CED00E00000FA05BE
:100F2000012001490862704700000E422DE9F0439C
:100F300085B0064644A30FCB01AC0FC446A00068A1
:100F400000904FF00008002500270024A146042E41
:100F500036D004DC012E3BD0022E6FD162E0082E89
:100F600032D0102E6AD13D484468006800F080708D
:100F700000B301A8C4F38341475C04F4803070B12E
:100F800036484068C0F340401DF8008004F48030CB
:100F900040B13348B0FBF8F000FB07F502E0314800
:100FA00007FB00F52D48406800F48000B0F5800F85
:100FB00001D1A94603E068000321B0FBF1F93EE04E
:100FC00000F0F8F981463AE000F0F4F9814636E0A5
:100FD0002248046A04F44070B0F5807F05D104F023
:100FE000020010B14FF400491BE004F44070B0F56A
:100FF000007F07D11948406A00F0020010B149F69D
:1010000040490EE004F44070B0F5407F07D113482A
:10101000006800F4003010B14FF2244901E04FF0B5
:1010200000090CE000F0B6F90C494968C1F38131C0
:10103000491C4900B0FBF1F901E0FFE700BF00BF28
:10104000484605B0BDE8F083020304050607080919
:101050000A0B0C0D0E0F10100102000000100240D0
:1010600000127A0000093D00F8B50446002600256C
:10107000207800F0010000286BD000274348C069A9
:1010800000F0805070B900BF4048C06940F0805007
:101090003E49C8610846C06900F08050009000BF1A
:1010A00000BF01273A48006800F48070B0B93848A2
:1010B000006840F4807036490860FFF75BFE064622
:1010C00006E0FFF757FE801B642801D90320F8BD16
:1010D0002F48006800F480700028F2D02B48006A86
:1010E00000F440752DB3A08800F44070A84220D0D1
:1010F0002648006A20F44075012026490860002037
:1011000008602248056205F0010090B1FFF732FE49
:10111000064608E0FFF72EFE801B41F28831884228
:1011200001D90320D3E71948006A00F00200002823
:10113000F0D01648006A20F44070616808431349F3
:101140000862012F04D10846C06920F08050C861B0
:1011500000BF207800F00200022807D10B48406849
:1011600020F44040A168084308494860207800F016
:101170001000102807D10548406820F480006169FC
:101180000843024948600020A1E700000010024027
:10119000007000404004424270B504460D460026EF
:1011A0006D48006800F00700A8420ED26A48006847
:1011B00020F007002843684908600846006800F0EE
:1011C0000700A84201D0012070BD207800F0020085
:1011D00002281DD1207800F00400042805D15F48C2
:1011E000406840F4E0605D494860207800F0080005
:1011F000082805D15948406840F460505749486074
:101200005648406820F0F000A16808435349486000
:10121000207800F0010000285DD06068012806D128
:101220004E48006800F4003090B90120CCE76068B7
:10123000022806D14948006800F0007040B901203A
:10124000C2E74648006800F0020008B90120BBE789
:101250004248406820F00300616808433F49486005
:10126000FFF788FD06466068012810D108E0FFF707
:1012700081FD801B41F28831884201D90320A3E718
:101280003648406800F00C000428F0D123E0606884
:10129000022810D108E0FFF76DFD801B41F2883174
:1012A000884201D903208FE72C48406800F00C00E9
:1012B0000828F0D10FE008E0FFF75CFD801B41F249
:1012C0008831884201D903207EE72448406800F035
:1012D0000C000028F0D12048006800F00700A84268
:1012E0000ED91D48006820F0070028431A490860FD
:1012F0000846006800F00700A84201D0012063E71B
:10130000207800F00400042807D11448406820F435
:10131000E060E168084311494860207800F0080067
:10132000082808D10D48406820F46050216940EA3F
:10133000C1000A49486000F03DF808494968C1F316
:101340000311074A515CC840064908600020FFF7B6
:1013500037FD002038E70000002002400010024066
:10136000362F00080C00002001480068704700007C
:101370000C00002000B5FFF7F7FF04494968C1F3EE
:101380000221034A515CC84000BD00000010024029
:10139000462F000800B5FFF7E7FF04494968C1F38D
:1013A000C221034A515CC84000BD00000010024049
:1013B000462F0008F0B585B00FF26C0C9CE8E010E9
:1013C00001A8A0E8E0101CA52D68009500210022CE
:1013D000002300240020194D696801F00C05F5B1C7
:1013E000042D02D0082D19D101E0154819E001ADF6
:1013F000C1F38346AC5D01F4803555B10F4D6D6886
:10140000C5F340451DF805200D4D6543B5FBF2F3CE
:1014100002E00C4D04FB05F3184602E000BF08484B
:1014200000BF00BF05B0F0BD0203040506070809B0
:101430000A0B0C0D0E0F10100102000000100240EC
:1014400000127A0000093D00F8B504460025207816
:1014500000F00100002878D0F848406800F00C0047
:1014600004280CD0F548406800F00C00082811D181
:10147000F248406800F48030B0F5803F0AD1EF4870
:10148000006800F4003000285FD0606800285CD15C
:101490000120F8BD00BF6068B0F5803F06D1E74885
:1014A000006840F48030E549086028E0606858B979
:1014B000E248006820F48030E0490860084600688F
:1014C00020F4802008601AE06068B0F5A02F0BD1EE
:1014D000DA48006840F48020D8490860084600686F
:1014E00040F4803008600AE0D448006820F480307E
:1014F000D24908600846006820F48020086000BFD8
:10150000606888B1FFF736FC054606E0FFF732FC5D
:10151000401B642801D90320BBE7C848006800F4D9
:1015200000300028F2D010E0FFF724FC054606E06A
:10153000FFF720FC401B642801D90320A9E7BF481E
:10154000006800F400300028F2D1207800F002009A
:10155000022857D1B948406800F00C0050B1B74894
:10156000406800F00C00082818D1B448406800F426
:10157000803098B9B148006800F0020020B12069BD
:10158000012801D0012084E7AC48006820F0F80071
:10159000616940EAC100A949086033E02069E8B107
:1015A0000120A7490860FFF7E5FB054606E0FFF7C5
:1015B000E1FB401B022801D903206AE79F4800682D
:1015C00000F002000028F2D09C48006820F0F800EB
:1015D000616940EAC1009949086013E00020984918
:1015E0000860FFF7C7FB054606E0FFF7C3FB401B9B
:1015F000022801D903204CE79048006800F002005F
:101600000028F2D1207800F0080008282DD1A06928
:10161000B8B101208B490860FFF7ACFB054606E036
:10162000FFF7A8FB401B022801D9032031E78348BC
:10163000406A00F002000028F2D0012001F01EF8FC
:1016400013E000207F490860FFF794FB054606E0A1
:10165000FFF790FB401B022801D9032019E77748C8
:10166000406A00F002000028F2D1207800F0040067
:10167000042873D100267148C06900F0805070B909
:1016800000BF6E48C06940F080506C49C861084690
:10169000C06900F08050009000BF00BF01266A487A
:1016A000006800F48070B0B96748006840F480704A
:1016B00065490860FFF75EFB054606E0FFF75AFB49
:1016C000401B642801D90320E3E65F48006800F46A
:1016D00080700028F2D000BFE068012806D157488A
:1016E000006A40F001005549086227E0E06858B9F7
:1016F0005248006A20F00100504908620846006A1A
:1017000020F00400086219E0E06805280BD14B487E
:10171000006A40F00400494908620846006A40F047
:10172000010008620AE04548006A20F001004349D0
:1017300008620846006A20F00400086200BFE06802
:10174000A0B1FFF717FB054609E0FFF713FB401BAD
:1017500041F28831884202D903209AE622E03748D4
:10176000006A00F002000028EFD012E0FFF702FB51
:10177000054608E0FFF7FEFA401B41F28831884237
:1017800001D9032085E62D48006A00F002000028F8
:10179000F0D1012E05D12948C06920F08050274999
:1017A000C86100BFE069C8B32448406800F00C007D
:1017B000082860D0E069022848D100202049086646
:1017C000FFF7D8FA054606E0FFF7D4FA401B0228D7
:1017D00001D903205DE61948006800F00070002878
:1017E000F2D1206AB0F5803F07D11448406820F458
:1017F0000030A168084311494860D4E90801084352
:101800000E49496821F4741108430C4948600120CD
:101810000B490866FFF7AEFA054607E02DE0FFF733
:10182000A9FA401B022801D9032032E603480068C8
:1018300000F000700028F2D01FE00000001002400D
:1018400000004242800442420070004000200C49E7
:101850000866FFF78FFA054606E0FFF78BFA401B94
:10186000022801D9032014E60648006800F0007041
:101870000028F2D101E001200BE6002009E600007B
:10188000000042420010024070B5044600250CB929
:10189000012070BD607C20B900202074204600F03B
:1018A0005BF802206074204600F060F918B1042053
:1018B00060740120EDE7204600F0FFFE18B104201F
:1018C00060740120E5E72068406820F00700216887
:1018D0004860A06828B11F48006820F001001D4939
:1018E00008601C48001F006820F46070A16808436D
:1018F0001849091F08606068401C08B1656809E064
:101900000120FFF713FB05461DB904206074012078
:10191000BFE76D1E2068806820F00F0040EA154088
:10192000216888602068C06865F30F002168C8607E
:10193000204600F0DFFE18B1042060740120A8E703
:101940000021E17301216173A17301206074002003
:101950009FE70000306C004038B504460B49206812
:10196000884212D1FFF7DCFA00BF0948C06940F095
:1019700000600749C8610846C06900F00060009037
:1019800000BF00BF01200349086038BD00280040A7
:10199000001002403C0442422DE9F04704460D4647
:1019A000904600260027B14604B115B90120BDE8D4
:1019B000F08700BF207C012801D10220F7E7012039
:1019C000207400BF02206074B8F1000F06D1E978DE
:1019D000E17369786173A978A1730BE0E87800F08E
:1019E00061FEE073687800F05DFE6073A87800F037
:1019F00059FEA073A27B617BE07B00F0BEFE2073EA
:101A0000207B2870204600F09EFE06464FF4616061
:101A1000B6FBF0F9B9F1180F2FD91820B9FBF0F087
:101A200000EB4000C000C0EB4011C1EB0020A6EB72
:101A300000163146204600F0F9FE38B104206074EB
:101A400000BF0020207400BF0120B0E7204600F056
:101A50006EFE0746781C80B1B7420ED20B48074491
:101A60003946204600F0CBFE38B10420607400BF38
:101A70000020207400BF012099E70120607400BF9E
:101A80000020207400BF00BF91E7000080510100DA
:101A90002DE9F04704460D4690460026002704B184
:101AA00015B90120BDE8F08700BF207C012801D1D5
:101AB0000220F7E70120207400BF02206074B8F113
:101AC000000F0BD128784FF4616148436978C1EB6E
:101AD000011100EB8100A978461812E0287800F087
:101AE000E1FD4FF4616100FB01F9687800F0DAFD77
:101AF000C0EB001009EB8009A87800F0D3FD09EBDA
:101B000000063146204600F091FE38B10420607492
:101B100000BF0020207400BF0120C3E72068406898
:101B200020F0050021684860204600F000FE0746CE
:101B3000781C80B1B7420ED20B4807443946204684
:101B400000F05DFE38B10420607400BF00202074F6
:101B500000BF0120A6E70120607400BF00202074B0
:101B600000BF00BF9EE700008051010070B5044631
:101B700000250CB9012070BD2068406820F00800E5
:101B800021684860FFF7F6F8054607E0FFF7F2F82E
:101B9000401BB0F57A7F01D90320ECE7206840684C
:101BA00000F008000028F1D00020E4E770B50446FA
:101BB0002546681EB0F1807F01D301200FE0681E2A
:101BC0004FF0E02148610F214FF0FF3000F040FD61
:101BD00000204FF0E021886107200861002070BDDF
:101BE000704700002DE9F04704462068056820682A
:101BF000C668206847694FF00008C14605F00F0825
:101C0000B8F1000F0AD105F0200038B106F020002D
:101C100020B1204600F026FFBDE8F087B8F1000FA4
:101C20006DD007F0010018B906F49070002866D056
:101C300005F0010030B106F4807018B1E06B40F09F
:101C40000100E06305F0040030B107F0010018B1B5
:101C5000E06B40F00200E06305F0020030B107F0F5
:101C6000010018B1E06B40F00400E06305F00800EB
:101C700030B107F0010018B1E06B40F00800E063FC
:101C8000E06B68B305F0200028B106F0200010B129
:101C9000204600F0E7FE20684069C0F38019E06B41
:101CA00000F0080010B9B9F1000F22D0204600F072
:101CB000AFFE2068406900F04000B0B12068406984
:101CC00020F0400021684861606B50B11748616B9B
:101CD0004863606BFEF766FB10B1606B416B884731
:101CE0000CE02046FFF77CFF08E02046FFF778FF76
:101CF00004E02046FFF774FF0020E0638CE705F066
:101D0000800030B106F0800018B1204600F0E2FFFC
:101D100082E705F0400030B106F0400018B12046DF
:101D200000F086FE78E700BF76E70000692900082A
:101D300010B504460CB9012010BDA06900B100E047
:101D400000BF94F8390028B9002084F838002046F4
:101D500000F028F8242084F839002068C06820F4B6
:101D600000502168C860204600F0D0FE206800695D
:101D700020F49040216808612068406920F02A0022
:101D8000216848612068C06840F400502168C8603C
:101D90000020E063202084F8390084F83A00002015
:101DA000CAE7000010B586B00446002002900390F8
:101DB000049005902A49206888424FD100BF2948E5
:101DC000806940F48040274988610846806900F4B2
:101DD0008040019000BF00BF00BF0846806940F00E
:101DE000040088610846806900F00400019000BF8B
:101DF00000BF48150290022003900320059002A91D
:101E00001948FEF717FE4FF48060029000200390FF
:101E1000049002A91448FEF70DFE14481449086006
:101E2000102048600021124881608021C16000219B
:101E3000016141618161C161FEF754FD08B1FEF7A6
:101E4000B0FA00BF0A482063446200BF0022114676
:101E50002520FFF712F82520FFF702F806B010BD85
:101E600000380140001002400008014044000240D8
:101E70007004002010B5034693F83A0020282FD1B3
:101E800001B10AB9012010BD00BF93F83800012844
:101E900001D10220F7E7012083F8380000BF9962E2
:101EA0009A85DA850020D863222083F83A0000BFA3
:101EB000002083F8380000BF1868C06840F48070C4
:101EC0001C68E0601868406940F001001C686061AF
:101ED0001868C06840F020001C68E0600020D2E76D
:101EE0000220D0E710B504460F49206888421AD175
:101EF0000E488088B0F5806F02DB00200B49888097
:101F00000A4890F8061482888088401C074B988005
:101F1000981D8154782019460880012201F206415B
:101F20002046FFF7A7FF10BD003801402800002021
:101F3000F7B50446154694F8390020283DD101989C
:101F400000B10DB90120FEBD00BF94F83800012892
:101F500001D10220F7E7012084F8380000BF019882
:101F60002062A584E5840020E063212084F8390004
:101F70001348216B88621348216BC8621248216B99
:101F800008630020216B486301AE23681A1D316885
:101F90002B46206BFEF7ECFC6FF0400021680860D8
:101FA00000BF002084F8380000BF2068406940F07E
:101FB0008000216848610020C5E70220C3E70000D7
:101FC000CD290008032A00087D29000870477047C2
:101FD00000BFFEE72DE9FF4704460D461646994629
:101FE00000200390029600278046009002A800F08F
:101FF000F7FE03909DF80C000221B1EB101F00D0FA
:102000001FE001A9029800F0EDF88046029908440B
:102010000290DDE9011047180298381A022800DA08
:102020000FE002A800F0DCFE8DF80000009800F040
:102030000100207002A800F0D3FE28704FF00108C4
:1020400000BF404604B0BDE8F0872DE9FF5F0646BB
:102050000C4617469846DDE90FABDDF838900020B6
:10206000039011980290002500200190009002A892
:1020700000F0B6FE03909DF80C000321B1EB101F99
:1020800000D035E09DF80C00C0F3C00030709DF822
:102090000C00C0F3410020609DF80C0000F001002E
:1020A00038706946029800F09DF801900299084442
:1020B00002900099029845182A4602A9484600F065
:1020C000A3FE10B10298281A00D511E0206800285C
:1020D00004DD02A800F08BFEA8F800000298281A80
:1020E000CBF800000298CAF800000120019000BF60
:1020F000019804B0BDE8F09F2DE9FE4F05460E465D
:1021000014461F46DDE90C9B00200290CDF8049098
:102110008046824601A800F063FE02909DF8080008
:102120000921B1EB101F00D02CE06946019800F0A6
:1021300059F88246019908440190DDE9001000EB4E
:1021400001080198A8EB0000022800DA1AE001A8B3
:1021500000F04DFE2880002020600DE02068B04295
:1021600002DB4FF0FF3A0DE001A800F039FE2268D3
:10217000511C216047F8220001984045EED34FF0F2
:10218000010A00BF5046BDE8FE8F2DE9F843054621
:102190000C46012600270020206000BF4FF0FF38CA
:1021A000781C0746042801DD00BF17E001216846BE
:1021B000A8478046B8F1010F00D00FE09DF800104D
:1021C00001F07F01206801FB06002060F6019DF808
:1021D000000000F080000028E0D100BF3846BDE8D4
:1021E000F883000070B504460D4603480460294694
:1021F0000248FFF7CAFF70BD10000020912D0008B3
:1022000030B50246002300BF0846CD1701EB5565E7
:10221000ED11A1EBC515ECB2CD1701EB5565E91138
:10222000002901DD44F0800418465B1C1454002989
:10223000EADC184630BD0000401C802801DA401C52
:102240000AE0B0F5804F01DA801C05E003498842BE
:1022500001DAC01C00E0001D70470000FFFF1F00F6
:102260002DE9FE4305460E461446029500200190D6
:10227000009000274FF0FF38204600F0B3F80746E3
:102280008146FFF7D9FFB04202DD6FF001089DE003
:102290000020019000BF9DF8040040F01000019064
:1022A00000BF9DF8041002A800F008FE394602980D
:1022B000FFF7A6FF029908440290207A042808D16B
:1022C00044A102A800F0E6FD042102A800F0F6FDFA
:1022D00007E042A102A800F0DDFD032102A800F002
:1022E000EDFD002000909DF80000A17E09B10221C3
:1022F00000E00021084300909DF80000E17E09B154
:10230000042100E00021084300909DF8000000F047
:10231000040090B19DF8001094F83D0000F0030017
:1023200041EAC00000909DF8000094F83C1009B10B
:10233000202100E0002108430090206C08B9A06C27
:1023400020B19DF8000040F080000090E06C08B9DA
:10235000606D20B19DF8000040F0400000909DF8B5
:10236000001002A800F0AAFD218B02A800F0ACFD2D
:1023700002A8D4E90423E16800F0BEFDE07E58B174
:1023800002A8D4E90A23616A00F0B6FD02A8D4E9E4
:102390000D23216B00F0B0FD9DF8000000F08000DF
:1023A00028B102A8D4E91123216C00F0A5FD9DF805
:1023B000000000F0400028B102A8D4E91423E16C29
:1023C00000F09AFD0298A0EB050800BF4046BDE86A
:1023D000FE8300004D515454000000004D514973DC
:1023E0006470000070B504460025207A032801D1EE
:1023F0000C2503E0207A042800D10A25D4E9041230
:10240000E06800F071F8801C0544E07E68B1D4E912
:102410000A12606A00F068F8861CD4E90D12206B7D
:1024200000F062F83044801C0544206C08B9A06CB0
:1024300030B1D4E91112206C00F056F8801C05442C
:10244000E06C08B9606D30B1D4E91412E06C00F0B2
:102450004BF8801C0544284670BD00002DE9F04172
:10246000054688461646FEF785FC074614E0FEF74B
:1024700081FCB919884203D34FF0FF30BDE8F081E9
:10248000FEF778FCB84207D2FEF774FCB0F5FA6F9D
:1024900002D34FF0FF30F1E70A4880780028E6D0F9
:1024A0000848848800200749888000BF05E0054966
:1024B000891D095C2954411C88B2A042F7DB2046E3
:1024C000DCE700002800002070B504460D462A46CF
:1024D00021460348FFF72CFD00200249887070BD9B
:1024E000300400202800002037B50024009820B1D7
:1024F0000098FDF75DFE044600E0019C20463EBDCD
:1025000008B500BF0A48406940F001000849486129
:102510000846406900F00100009000BF00BF0022A3
:1025200011460E20FEF7A9FC0E20FEF799FC08BD0F
:102530000010024008B500BF1348806940F0100049
:10254000114988610846806900F01000009000BFC2
:1025500000BF00BF0846806940F00400886108465B
:10256000806900F00400009000BF00BF00BF084673
:10257000806940F0080088610846806900F0080022
:10258000009000BF00BF08BD001002401CB5002035
:10259000019000901848194908604FF0FF304860DA
:1025A0004FF4807115488160FFF76EF908B1FDF7AF
:1025B000F8FE00208DF804008DF805008DF8060067
:1025C000012201A90D48FFF763FA08B1FDF7E9FE02
:1025D00001208DF800008DF801008DF80200002028
:1025E0008DF80300012269460448FFF7D5F908B1C8
:1025F000FDF7D7FE1CBD000000280040140000209D
:1026000010B50B480B4908604FF416504860002184
:1026100008488160C16001610C2141610021816134
:10262000C161FFF785FB08B1FDF7BBFE10BD0000DF
:10263000003801403004002000BFFEE77047000072
:1026400002480068C0F30220704700000CED00E073
:1026500010B5002807DA0A07140E054A00F00F0328
:102660001B1FD45403E00A07130E024A135410BD73
:1026700018ED00E000E400E07047000008B50849EC
:102680000968C9084FF47A72B1FBF2F14143009135
:1026900000BF00BF00994A1E00920029F9D108BD71
:1026A0000C000020014600BF080900EB800042003A
:1026B00001F00F001044C0B2704770B50446002509
:1026C000FEF758FB054607E0FEF754FB401BB0F54C
:1026D0007A7F01D9032070BD2068406800F0200097
:1026E0000028F1D02068406840F010002168486060
:1026F0000020F0E770B5044600252068406820F00F
:10270000100021684860FEF735FB054607E0FEF73C
:1027100031FB401BB0F57A7F01D9032070BD2068E2
:10272000406800F020000028F1D00020F6E70146C4
:10273000002200230868006A82B20868406A83B2F7
:1027400043EA0240704730B50146002200230024CE
:1027500000200D68AD69AAB20D68ED69ACB20D68D4
:10276000AD69ABB29A4205D00D68ED6963F31F45C0
:10277000284601E044EA024030BDF0B504460B466D
:102780000021002504F5FA61032B1BD2C3EBC30023
:1027900000EB03100926B0FBF6F01044001D4618AC
:1027A000481E06EB90066427B0FBF7F0361A481E69
:1027B000BF00B0FBF7F030440726B0FBF6F706FB8E
:1027C00017051AE0C3EBC30000EB03100926B0FBAA
:1027D000F6F01044001D084400EB91006426B1FBA4
:1027E000F6F6801B4FF4C876B1FBF6F63044801E37
:1027F0000726B0FBF6F706FB1705E8B2F0BD70B58B
:1028000004460D4600262046FFF757FF08B1012673
:102810000AE0280C21680862A8B2216848622046B4
:10282000FFF768FF00B10126304670BD70B5044661
:102830000D4600262046FFF740FF08B101260AE0BA
:10284000280C21688861A8B22168C8612046FFF77A
:1028500051FF00B10126304670BD704710B5FEF73C
:102860008FFA00F071F810BD00B595B028210BA8C3
:10287000FDF793FC142106A8FDF78FFC182168468C
:10288000FDF78BFC05200B904FF480300C9000205E
:102890000D9001200E900F9002201290C103139111
:1028A0004FF4E01114910BA8FEF7CEFD08B1FDF72F
:1028B00078FD0F20069002200790002008904FF42A
:1028C0008060099000200A90022106A8FEF764FCAF
:1028D00008B1FDF766FD01200090000201906846F6
:1028E000FEF7C2FB08B1FDF75CFD15B000BD0000AE
:1028F0001148006840F001000F4908600846406830
:102900000E4908400C494860084600680C490840D8
:10291000094908600846006820F4802008600846DD
:10292000406820F4FE0048604FF41F008860C80330
:102930000449086070470000001002400000FFF8E2
:10294000FFFFF6FE08ED00E006480088002808DDDD
:1029500004480088401E80B20249088008B901205E
:10296000887070472800002070B505466C6A00200A
:10297000E085E0842046FFF733F970BD70B5064668
:102980000025746A20684069C0F3C01594F83900C6
:10299000212805D125B10020E084204600F058F818
:1029A00020684069C0F3801594F83A00222805D1C8
:1029B00025B10020E085204600F02AF8E06B40F0C9
:1029C0001000E0632046FFF70BF970BD70B50546B7
:1029D0006C6A2868006800F0200070B90020E0846C
:1029E0002068406920F08000216848612068C06844
:1029F00040F040002168C86002E02046FFF7E6FA98
:102A000070BD70B50446656A2846FFF7E0FA70BDF0
:102A10000168C96821F490710268D1600168496950
:102A200021F0010102685161202180F83A107047BD
:102A300010B504462068C06820F040002168C860D6
:102A4000202084F839002046FFF7C0FA002010BD8E
:102A50000168C96821F0C0010268D160202180F8B6
:102A60003910704770B5044694F83A0022284AD1CC
:102A7000A068B0F5805F13D1A56A206940B92068CD
:102A80004068C0F308002880A06A801CA06219E09A
:102A900020684068C0B22880A06A401CA06211E093
:102AA000206938B920684068C1B2A26A501CA0628F
:102AB000117007E02068406800F07F01A26A501C96
:102AC000A0621170E08D401E80B2E085C8B9206818
:102AD000C06820F020002168C8602068C06820F429
:102AE00080702168C8602068406920F0010021687A
:102AF0004861202084F83A002046FFF7F3F90020CF
:102B000070BD0020FCE70220FAE700002DE9F0414B
:102B1000044600252068006920F44050E16808431D
:102B2000216808612169A068084361690843054379
:102B30002068C06841F20C61884328432168C8605E
:102B40002068406920F44070A16908432168486109
:102B50005F49206888425CD1FEF71CFC00EBC00195
:102B600001EB001061688900B0FBF1F6FEF712FC82
:102B700000EBC00101EB001061688900B0FBF1F0CF
:102B80006421B0FBF1F000EBC00101EB0010A6EBFB
:102B90008000322101EB00106421B0FBF1F000F065
:102BA000F006FEF7F7FB00EBC00101EB00106168D7
:102BB0008900B0FBF1F06421B0FBF1F006EB0016E8
:102BC000FEF7E8FB00EBC00101EB00106168890033
:102BD000B0FBF1F7FEF7DEFB00EBC00101EB0010EC
:102BE00061688900B0FBF1F06421B0FBF1F000EB0B
:102BF000C00101EB0010A7EB8000322101EB0010B7
:102C00006421B0FBF1F000F00F00304421688860CF
:102C10005BE0FEF7AFFB00EBC00101EB0010616869
:102C20008900B0FBF1F6FEF7A5FB00EBC00101EB5C
:102C3000001061688900B0FBF1F06421B0FBF1F095
:102C400000EBC00101EB0010A6EB8000322101EB8C
:102C500000106421B0FBF1F000F0F006FEF78AFBF3
:102C600000EBC00101EB001061688900B0FBF1F0DE
:102C70006421B0FBF1F006EB0016FEF77BFB00EBE6
:102C8000C00101EB001061688900B0FBF1F7FEF7AD
:102C900071FB00EBC00101EB001061688900B0FB23
:102CA000F1F06421B0FBF1F000EBC00101EB00108A
:102CB000A7EB8000322101EB00106421B0FBF1F0A2
:102CC00000F00F00304421688860BDE8F08100000A
:102CD00000380140014691F8390021282CD188683C
:102CE000B0F5805F0FD10A6A1088C0F308000B6846
:102CF0005860086918B9086A801C086209E0086A07
:102D0000401C086205E00B6A581C086218780B68C2
:102D10005860C88C401E80B2C88458B90868C06822
:102D200020F080000B68D8600868C06840F0400060
:102D30000B68D860002070470220FCE710B50248FD
:102D4000FEF750FF10BD00003004002010B5012236
:102D500003490448FFF78EF800200349887010BD2E
:102D60002E040020300400202800002000BFFEE7D1
:102D700002E008C8121F08C1002AFAD17047704744
:102D8000002001E001C1121F002AFBD170470000A2
:102D900010B50246002309E006480068007810706C
:102DA00004480068401C034C20605B1C8B42F3DB32
:102DB000084610BD10000020FDF7EEFFFFF754FDA0
:102DC000FFF7B8FBFFF79CFBFFF7E0FBFFF718FCF2
:102DD000FFF7BCFFFDF706FA01E0FDF783FAFCE719
:102DE00001460A6810780A68521C0A60704730B5BC
:102DF00001460A68537814784FF4807505FB043057
:102E00000B689B1C0B6030BDF0B505460C461646A2
:102E100000272068301A01280FDD2046FFF7E7FF62
:102E20006860206869680844B04206D82168A960D3
:102E3000206869680844206001270020286038461F
:102E4000F0BD000030B58BB004460025002007908F
:102E500006900E4806AA0E49CDE90304CDE90112F9
:102E600008A8A1F110031A1D07A90090501EFFF732
:102E7000ECF8012801D000BFFEE70549103907989A
:102E80008870069888600BB030BD00002E000020CE
:102E9000C40C002070B504460E463046FDF788F994
:102EA00005462946204600F00FF82A46314620689C
:102EB000FDF75AF920682844206070BD026811703F
:102EC0000268521C0260704710B50A46CB1701EB2E
:102ED00013631B0A046823700268521C02600A46CE
:102EE000CB1701EB13631B12A1EB032304682370C0
:102EF0000268521C026010BD1FB5044602980028EB
:102F00000DDD20460299FFF7DFFFDDE90221206891
:102F1000FDF72AF920680299084420600AE0019828
:102F200020B120460199FFF7B5FF03E000212046BC
:102F3000FFF7CAFF1FBD00000000000000000102F3
:102F40000304060708090000000001020304000052
:102F500031323334357C7365637572656D6F6465CA
:102F60003D332C7369676E6D6574686F643D686D81
:102F70006163736861317C003735463344453831CD
:102F800031353044433135344430394441413634AD
:102F9000453538384239374243433435424132307F
:102FA000006465766963652661317A5045367575CA
:102FB0007A6767004D515443000000000400000090
:102FC0000000000000000000000000001E000100E2
:102FD0004D515457000000000000000000000000A8
:102FE00000000000000000000000000000000000E1
:102FF00000000000000000000000000000000000D1
:103000000000000000000000000000002C3000085C
:103010000000002014000000702D0008403000085F
:1030200014000020B4100000802D000800000000F3
:10303000100000000100000000A24A04000000008F
:0400000508000131BD
:00000001FF
